{
  "contractName": "ZombieFactory",
  "abi": [
    {
      "constant": true,
      "inputs": [
        {
          "name": "",
          "type": "uint256"
        }
      ],
      "name": "zombies",
      "outputs": [
        {
          "name": "name",
          "type": "string"
        },
        {
          "name": "dna",
          "type": "uint256"
        },
        {
          "name": "level",
          "type": "uint32"
        },
        {
          "name": "readyTime",
          "type": "uint32"
        }
      ],
      "payable": false,
      "stateMutability": "view",
      "type": "function"
    },
    {
      "constant": true,
      "inputs": [
        {
          "name": "",
          "type": "uint256"
        }
      ],
      "name": "zombieToOwner",
      "outputs": [
        {
          "name": "",
          "type": "address"
        }
      ],
      "payable": false,
      "stateMutability": "view",
      "type": "function"
    },
    {
      "constant": true,
      "inputs": [],
      "name": "owner",
      "outputs": [
        {
          "name": "",
          "type": "address"
        }
      ],
      "payable": false,
      "stateMutability": "view",
      "type": "function"
    },
    {
      "constant": false,
      "inputs": [
        {
          "name": "newOwner",
          "type": "address"
        }
      ],
      "name": "transferOwnership",
      "outputs": [],
      "payable": false,
      "stateMutability": "nonpayable",
      "type": "function"
    },
    {
      "anonymous": false,
      "inputs": [
        {
          "indexed": false,
          "name": "zombieId",
          "type": "uint256"
        },
        {
          "indexed": false,
          "name": "name",
          "type": "string"
        },
        {
          "indexed": false,
          "name": "dna",
          "type": "uint256"
        }
      ],
      "name": "NewZombie",
      "type": "event"
    },
    {
      "anonymous": false,
      "inputs": [
        {
          "indexed": true,
          "name": "previousOwner",
          "type": "address"
        },
        {
          "indexed": true,
          "name": "newOwner",
          "type": "address"
        }
      ],
      "name": "OwnershipTransferred",
      "type": "event"
    },
    {
      "constant": false,
      "inputs": [
        {
          "name": "_name",
          "type": "string"
        }
      ],
      "name": "createRandomZombie",
      "outputs": [],
      "payable": false,
      "stateMutability": "nonpayable",
      "type": "function"
    }
  ],
  "bytecode": "0x60806040526010600155600154600a0a60025562015180600355336000806101000a81548173ffffffffffffffffffffffffffffffffffffffff021916908373ffffffffffffffffffffffffffffffffffffffff160217905550610955806100686000396000f30060806040526004361061006d576000357c0100000000000000000000000000000000000000000000000000000000900463ffffffff1680632052465e14610072578063528b7b8f146101455780637bff0a01146101b25780638da5cb5b1461021b578063f2fde38b14610272575b600080fd5b34801561007e57600080fd5b5061009d600480360381019080803590602001909291905050506102b5565b60405180806020018581526020018463ffffffff1663ffffffff1681526020018363ffffffff1663ffffffff168152602001828103825286818151815260200191508051906020019080838360005b838110156101075780820151818401526020810190506100ec565b50505050905090810190601f1680156101345780820380516001836020036101000a031916815260200191505b509550505050505060405180910390f35b34801561015157600080fd5b50610170600480360381019080803590602001909291905050506103ac565b604051808273ffffffffffffffffffffffffffffffffffffffff1673ffffffffffffffffffffffffffffffffffffffff16815260200191505060405180910390f35b3480156101be57600080fd5b50610219600480360381019080803590602001908201803590602001908080601f01602080910402602001604051908101604052809392919081815260200183838082843782019150505050505091929192905050506103df565b005b34801561022757600080fd5b50610230610458565b604051808273ffffffffffffffffffffffffffffffffffffffff1673ffffffffffffffffffffffffffffffffffffffff16815260200191505060405180910390f35b34801561027e57600080fd5b506102b3600480360381019080803573ffffffffffffffffffffffffffffffffffffffff16906020019092919050505061047d565b005b6004818154811015156102c457fe5b9060005260206000209060030201600091509050806000018054600181600116156101000203166002900480601f0160208091040260200160405190810160405280929190818152602001828054600181600116156101000203166002900480156103705780601f1061034557610100808354040283529160200191610370565b820191906000526020600020905b81548152906001019060200180831161035357829003601f168201915b5050505050908060010154908060020160009054906101000a900463ffffffff16908060020160049054906101000a900463ffffffff16905084565b60056020528060005260406000206000915054906101000a900473ffffffffffffffffffffffffffffffffffffffff1681565b600080600660003373ffffffffffffffffffffffffffffffffffffffff1673ffffffffffffffffffffffffffffffffffffffff1681526020019081526020016000205414151561042e57600080fd5b610437826105d2565b905060648181151561044557fe5b06810390506104548282610654565b5050565b6000809054906101000a900473ffffffffffffffffffffffffffffffffffffffff1681565b6000809054906101000a900473ffffffffffffffffffffffffffffffffffffffff1673ffffffffffffffffffffffffffffffffffffffff163373ffffffffffffffffffffffffffffffffffffffff161415156104d857600080fd5b600073ffffffffffffffffffffffffffffffffffffffff168173ffffffffffffffffffffffffffffffffffffffff161415151561051457600080fd5b8073ffffffffffffffffffffffffffffffffffffffff166000809054906101000a900473ffffffffffffffffffffffffffffffffffffffff1673ffffffffffffffffffffffffffffffffffffffff167f8be0079c531659141344cd1fd0a4f28419497f9722a3daafe3b4186f6b6457e060405160405180910390a3806000806101000a81548173ffffffffffffffffffffffffffffffffffffffff021916908373ffffffffffffffffffffffffffffffffffffffff16021790555050565b600080826040518082805190602001908083835b60208310151561060b57805182526020820191506020810190506020830392506105e6565b6001836020036101000a03801982511681845116808217855250505050505090500191505060405180910390206001900490506002548181151561064b57fe5b06915050919050565b600060016004608060405190810160405280868152602001858152602001600163ffffffff168152602001600354420163ffffffff168152509080600181540180825580915050906001820390600052602060002090600302016000909192909190915060008201518160000190805190602001906106d4929190610884565b506020820151816001015560408201518160020160006101000a81548163ffffffff021916908363ffffffff16021790555060608201518160020160046101000a81548163ffffffff021916908363ffffffff1602179055505050039050336005600083815260200190815260200160002060006101000a81548173ffffffffffffffffffffffffffffffffffffffff021916908373ffffffffffffffffffffffffffffffffffffffff160217905550600660003373ffffffffffffffffffffffffffffffffffffffff1673ffffffffffffffffffffffffffffffffffffffff168152602001908152602001600020600081548092919060010191905055507f88f026aacbbecc90c18411df4b1185fd8d9be2470f1962f192bf84a27d0704b78184846040518084815260200180602001838152602001828103825284818151815260200191508051906020019080838360005b83811015610843578082015181840152602081019050610828565b50505050905090810190601f1680156108705780820380516001836020036101000a031916815260200191505b5094505050505060405180910390a1505050565b828054600181600116156101000203166002900490600052602060002090601f016020900481019282601f106108c557805160ff19168380011785556108f3565b828001600101855582156108f3579182015b828111156108f25782518255916020019190600101906108d7565b5b5090506109009190610904565b5090565b61092691905b8082111561092257600081600090555060010161090a565b5090565b905600a165627a7a723058200e5f7a6ec2f07f74e312ac449c6f122998e6f2c8aa47e20c0e4a469059ff226d0029",
  "source": "pragma solidity ^0.4.24;\n\nimport \"./Ownable.sol\";\n\ncontract ZombieFactory is Ownable {\n\n    event NewZombie(uint zombieId, string name, uint dna);\n\n    uint dnaDigits = 16;\n    uint dnaModulus = 10 ** dnaDigits;\n    uint cooldownTime = 1 days;\n\n    /**\n    If you have multiple uints inside a struct, using a smaller-sized uint\n    when possible will allow Solidity to pack these variables together to\n    take up less storage. For example:\n    */\n    struct Zombie {\n        string name;\n        uint dna;\n        uint32 level;\n        uint32 readyTime;\n    }\n\n    /**\n    These variables (mapping and Zombie[] return a promise, \n    so to get the values of them we need to\n    \n    > instance.zombies(0).then(function(z){ a = z})\n    > a[0]\n     */\n\n    Zombie[] public zombies;\n\n    // id = 1 => address = 0x5a4b3f2cc2d3a4bc6dee3\n    mapping (uint => address) public zombieToOwner;\n    \n    // address = 0x5a4b3f2cc2d3a4bc6dee3 => count = 3 Zombies\n    mapping (address => uint) ownerZombieCount;\n\n    function _createZombie(string _name, uint _dna) internal {\n        // push returns the length of zombies\n        uint id = zombies.push(Zombie(_name, _dna, 1, uint32(now + cooldownTime))) - 1;\n        \n        zombieToOwner[id] = msg.sender;\n        ownerZombieCount[msg.sender]++;\n\n        // Emit an event telling to the listeners that a new zombie was created\n        emit NewZombie(id, _name, _dna);\n    }\n\n    function _generateRandomDna(string _str) private view returns (uint) {\n        // Always strings are handled with keccak256 (to compare or whatever you need)\n        uint rand = uint(keccak256(_str));\n        return rand % dnaModulus;\n    }\n\n    function createRandomZombie(string _name) public {\n        // require is a validation. If the validation fails, the code doesnt continue\n        require(ownerZombieCount[msg.sender] == 0);\n        uint randDna = _generateRandomDna(_name);\n        randDna = randDna - randDna % 100;\n        _createZombie(_name, randDna);\n    }\n\n}\n",
  "sourcePath": "/home/rv/engineer/code/blockchain/CryptoZombie/contracts/ZombieFactory.sol",
  "compiler": {
    "name": "solc",
    "version": "0.4.24+commit.e67f0147.Emscripten.clang"
  },
  "schemaVersion": "2.0.1",
  "updatedAt": "2018-09-06T07:39:33.227Z"
}