{
  "contractName": "ZombieFeeding",
  "abi": [
    {
      "constant": true,
      "inputs": [
        {
          "name": "",
          "type": "uint256"
        }
      ],
      "name": "zombies",
      "outputs": [
        {
          "name": "name",
          "type": "string"
        },
        {
          "name": "dna",
          "type": "uint256"
        }
      ],
      "payable": false,
      "stateMutability": "view",
      "type": "function"
    },
    {
      "constant": true,
      "inputs": [
        {
          "name": "",
          "type": "uint256"
        }
      ],
      "name": "zombieToOwner",
      "outputs": [
        {
          "name": "",
          "type": "address"
        }
      ],
      "payable": false,
      "stateMutability": "view",
      "type": "function"
    },
    {
      "constant": false,
      "inputs": [
        {
          "name": "_name",
          "type": "string"
        }
      ],
      "name": "createRandomZombie",
      "outputs": [],
      "payable": false,
      "stateMutability": "nonpayable",
      "type": "function"
    },
    {
      "anonymous": false,
      "inputs": [
        {
          "indexed": false,
          "name": "zombieId",
          "type": "uint256"
        },
        {
          "indexed": false,
          "name": "name",
          "type": "string"
        },
        {
          "indexed": false,
          "name": "dna",
          "type": "uint256"
        }
      ],
      "name": "NewZombie",
      "type": "event"
    },
    {
      "constant": false,
      "inputs": [
        {
          "name": "_zombieId",
          "type": "uint256"
        },
        {
          "name": "_targetDna",
          "type": "uint256"
        }
      ],
      "name": "feedAndMultiply",
      "outputs": [],
      "payable": false,
      "stateMutability": "nonpayable",
      "type": "function"
    },
    {
      "constant": false,
      "inputs": [
        {
          "name": "_zombieId",
          "type": "uint256"
        },
        {
          "name": "_kittyId",
          "type": "uint256"
        }
      ],
      "name": "feedOnKitty",
      "outputs": [],
      "payable": false,
      "stateMutability": "nonpayable",
      "type": "function"
    }
  ],
  "bytecode": "0x60806040526010600055600054600a0a6001557306012c8cf97bead5deae237070f9587f8e7a266d600560006101000a81548173ffffffffffffffffffffffffffffffffffffffff021916908373ffffffffffffffffffffffffffffffffffffffff160217905550600560009054906101000a900473ffffffffffffffffffffffffffffffffffffffff16600660006101000a81548173ffffffffffffffffffffffffffffffffffffffff021916908373ffffffffffffffffffffffffffffffffffffffff1602179055503480156100d657600080fd5b5061095d806100e66000396000f30060806040526004361061006d576000357c0100000000000000000000000000000000000000000000000000000000900463ffffffff1680630dedffb81461007257806317a7f4cc146100a95780632052465e146100e0578063528b7b8f1461018d5780637bff0a01146101fa575b600080fd5b34801561007e57600080fd5b506100a76004803603810190808035906020019092919080359060200190929190505050610263565b005b3480156100b557600080fd5b506100de600480360381019080803590602001909291908035906020019092919050505061035c565b005b3480156100ec57600080fd5b5061010b600480360381019080803590602001909291905050506104cf565b6040518080602001838152602001828103825284818151815260200191508051906020019080838360005b83811015610151578082015181840152602081019050610136565b50505050905090810190601f16801561017e5780820380516001836020036101000a031916815260200191505b50935050505060405180910390f35b34801561019957600080fd5b506101b86004803603810190808035906020019092919050505061059a565b604051808273ffffffffffffffffffffffffffffffffffffffff1673ffffffffffffffffffffffffffffffffffffffff16815260200191505060405180910390f35b34801561020657600080fd5b50610261600480360381019080803590602001908201803590602001908080601f01602080910402602001604051908101604052809392919081815260200183838082843782019150505050505091929192905050506105cd565b005b6000806003600085815260200190815260200160002060009054906101000a900473ffffffffffffffffffffffffffffffffffffffff1673ffffffffffffffffffffffffffffffffffffffff163373ffffffffffffffffffffffffffffffffffffffff161415156102d357600080fd5b6002848154811015156102e257fe5b90600052602060002090600202019150600154838115156102ff57fe5b06925060028383600101540181151561031457fe5b0490506103566040805190810160405280600681526020017f4e6f4e616d65000000000000000000000000000000000000000000000000000081525082610646565b50505050565b6000600660009054906101000a900473ffffffffffffffffffffffffffffffffffffffff1673ffffffffffffffffffffffffffffffffffffffff1663e98b7f4d836040518263ffffffff167c01000000000000000000000000000000000000000000000000000000000281526004018082815260200191505061014060405180830381600087803b1580156103f057600080fd5b505af1158015610404573d6000803e3d6000fd5b505050506040513d61014081101561041b57600080fd5b8101908080519060200190929190805190602001909291908051906020019092919080519060200190929190805190602001909291908051906020019092919080519060200190929190805190602001909291908051906020019092919080519060200190929190505050909192939495969798509091929394959697509091929394959650909192939495509091929394509091929350909192509091509050809150506104ca8382610263565b505050565b6002818154811015156104de57fe5b9060005260206000209060020201600091509050806000018054600181600116156101000203166002900480601f01602080910402602001604051908101604052809291908181526020018280546001816001161561010002031660029004801561058a5780601f1061055f5761010080835404028352916020019161058a565b820191906000526020600020905b81548152906001019060200180831161056d57829003601f168201915b5050505050908060010154905082565b60036020528060005260406000206000915054906101000a900473ffffffffffffffffffffffffffffffffffffffff1681565b600080600460003373ffffffffffffffffffffffffffffffffffffffff1673ffffffffffffffffffffffffffffffffffffffff1681526020019081526020016000205414151561061c57600080fd5b6106258261080a565b905060648181151561063357fe5b06810390506106428282610646565b5050565b6000600160026040805190810160405280868152602001858152509080600181540180825580915050906001820390600052602060002090600202016000909192909190915060008201518160000190805190602001906106a892919061088c565b50602082015181600101555050039050336003600083815260200190815260200160002060006101000a81548173ffffffffffffffffffffffffffffffffffffffff021916908373ffffffffffffffffffffffffffffffffffffffff160217905550600460003373ffffffffffffffffffffffffffffffffffffffff1673ffffffffffffffffffffffffffffffffffffffff168152602001908152602001600020600081548092919060010191905055507f88f026aacbbecc90c18411df4b1185fd8d9be2470f1962f192bf84a27d0704b78184846040518084815260200180602001838152602001828103825284818151815260200191508051906020019080838360005b838110156107c95780820151818401526020810190506107ae565b50505050905090810190601f1680156107f65780820380516001836020036101000a031916815260200191505b5094505050505060405180910390a1505050565b600080826040518082805190602001908083835b602083101515610843578051825260208201915060208101905060208303925061081e565b6001836020036101000a03801982511681845116808217855250505050505090500191505060405180910390206001900490506001548181151561088357fe5b06915050919050565b828054600181600116156101000203166002900490600052602060002090601f016020900481019282601f106108cd57805160ff19168380011785556108fb565b828001600101855582156108fb579182015b828111156108fa5782518255916020019190600101906108df565b5b509050610908919061090c565b5090565b61092e91905b8082111561092a576000816000905550600101610912565b5090565b905600a165627a7a72305820778883d1580de6c7c10174bda9c5fd73f472db774143875525910c55a0131cc40029",
  "source": "pragma solidity 0.4.24;\n\nimport \"./ZombieFactory.sol\";\n\ncontract KittyInterface {\n  function getKitty(uint256 _id) external view returns (\n    bool isGestating,\n    bool isReady,\n    uint256 cooldownIndex,\n    uint256 nextActionAt,\n    uint256 siringWithId,\n    uint256 birthTime,\n    uint256 matronId,\n    uint256 sireId,\n    uint256 generation,\n    uint256 genes\n  );\n}\n\ncontract ZombieFeeding is ZombieFactory {\n\n  address ckAddress = 0x06012c8cf97BEaD5deAe237070F9587f8E7A266d;\n  KittyInterface kittyContract = KittyInterface(ckAddress);\n\n  // Modify function definition here:\n  function feedAndMultiply(uint _zombieId, uint _targetDna) public {\n    require(msg.sender == zombieToOwner[_zombieId]);\n    Zombie storage myZombie = zombies[_zombieId];\n    _targetDna = _targetDna % dnaModulus;\n    uint newDna = (myZombie.dna + _targetDna) / 2;\n    // Add an if statement here\n    _createZombie(\"NoName\", newDna);\n  }\n\n  function feedOnKitty(uint _zombieId, uint _kittyId) public {\n    uint kittyDna;\n    (,,,,,,,,,kittyDna) = kittyContract.getKitty(_kittyId);\n    // And modify function call here:\n    feedAndMultiply(_zombieId, kittyDna);\n  }\n\n}\n",
  "sourcePath": "/home/rv/engineer/code/blockchain/CryptoZombie/contracts/ZombieFeeding.sol",
  "compiler": {
    "name": "solc",
    "version": "0.4.24+commit.e67f0147.Emscripten.clang"
  },
  "schemaVersion": "2.0.1",
  "updatedAt": "2018-08-19T09:48:58.878Z"
}